:100000000C94EF1E0C94201F0C94201F0C94201FA6
:100010000C94201F0C94201F0C94201F0C94201F64
:100020000C94201F0C94201F0C94201F0C94201F54
:100030000C94201F0C94201F0C94201F0C94201F44
:100040000C94201F0C94936C0C94201F0C94201F74
:100050000C94201F0C94201F0C94EBBB0C9407797C
:100060000C94201F0C9423490C94201F0C94201FE7
:100070000C94201F0C94201F0C94201F0C94201F04
:100080000C94201F0C94201F0C94201F0C94201FF4
:100090000C94201F0C94201F0C94201F0C940AE039
:1000A0000C94201F0C94201F0C94201F0C94201FD4
:1000B0000C94201F0C94201F0C94201F0C94201FC4
:1000C0000C94201F0C94201F0C94201F0C94201FB4
:1000D0000C94201F0C94201F0C94201F0C94201FA4
:1000E0000C94201F89768C767B767F768576C37616
:1000F000907694769A769E76A276A876AC76B0764E
:10010000C376B676BA76BE76237828782D78377897
:100110004178BA784B7853785B7865786F787978DE
:1001200088789278BA789C78A678B0788C84728433
:10013000758478847B8487847E8497848184848496
:1001400074BC78BCA1BCA5BC87BC92BC61BC084A8D
:10015000D73B3BCE016E84BCBFFDC12F3D6C7431DB
:100160009ABD56833DDA3D00C77F11BED9E4BB4C32
:100170003E916BAAAABE000000803F05A84CCDB2FC
:10018000D44EB93836A9020C50B9918688083CA6DD
:10019000AAAA2ABE000000803F000D9434070D94E7
:1001A00010170D947D180D94D9070D948D070D949B
:1001B00078080D9425054E414E494E495459494EF3
:1001C00046CDCCCC3D0AD7233C17B7D13877CC2BC2
:1001D000329595E6241FB14F0A000020410000C867
:1001E0004200401C4620BCBE4CCA1B0E5AAEC59DE8
:1001F000744C4556454C494E4700434F4D4D554E66
:1002000049434154494F4E0044525952554E0045BE
:1002100052524F525300494E464F004543484F00FB
:1002200020746F6F206C6F6E6720657874727573C1
:10023000696F6E2070726576656E7465640A002061
:10024000636F6C6420657874727573696F6E20706B
:10025000726576656E7465640A0047322F473320F5
:1002600062616420706172616D65746572730A0009
:10027000536C6565702E2E2E00436C69636B207481
:100280006F20726573756D652E2E2E004E6F206D7A
:100290006F76652E0046696C652064656C657465D3
:1002A000643A0044656C6574696F6E206661696CC0
:1002B00065642C2046696C653A20006F70656E207D
:1002C0006661696C65642C2046696C653A20005053
:1002D00072696E742074696D653A200050726F7493
:1002E00065637465642050696E0A0046696C616DCF
:1002F000656E7420757365643A200053746174737D
:100300003A20002C204C6F6E67657374206A6F6210
:100310003A2000546F74616C2074696D653A200056
:1003200053746174733A20002C204661696C6564D3
:100330003A20002C2046696E69736865643A200093
:100340005072696E74733A200053746174733A206A
:10035000004525692048656174696E672E2E2E0060
:100360003344205072696E746572205265616479FD
:100370002E001B0216020F020802FA01F1016F663D
:10038000660044454255473A004B494C4C45442E83
:1003900020004D3131332053006F6B0020573A005D
:1003A00045256920436F6F6C696E672E2E2E0045C0
:1003B00025692048656174696E672E2E2E003344CE
:1003C000205072696E7465722052656164792E00E6
:1003D00020573A0042656420636F6F6C696E672E28
:1003E0002E2E004265642068656174696E672E2E4A
:1003F0002E003344205072696E746572204F666619
:100400002E004D31343520533C696E6465783E20B2
:100410006F7574206F662072616E67652028302DBD
:1004200031290A00205400205200416363656C6545
:10043000726174696F6E3A2050004F66667365741E
:1004400073206170706C696564004572723A205463
:100450006F6F206661722100546F6F206661722099
:1004600066726F6D207265666572656E6365207079
:100470006F696E740A00205A00205900580020202D
:100480004D61783A2000205A002059005800202061
:100490004D696E3A20004F6E20004F666600536F24
:1004A000667420656E6473746F70733A2000204622
:1004B0006C6F773A2000000136372603FFFFFF35C7
:1004C0003C3D380E0FFFFF311A1C181213FFFFFFBF
:1004D00028FF0C0811FFFF04171928FFFF2A1B1D16
:1004E00029FFFF2C08390A103A09103B2E303E2410
:1004F000221E6C636420636F6E7472617374207665
:10050000616C75653A200020643A0020693A002049
:10051000703A00496E76616C696420657874727512
:100520006465720A0043290A0061626C65642028D0
:100530006D696E2074656D702000436F6C6420657A
:10054000787472756465732061726520004E6F2047
:1005500063617365206C696768740A004545505291
:100560004F4D204F4B0A004475706C69636174698C
:100570006F6E206D6F64653A2000205900447561EC
:100580006C20456E6473746F702041646A75737477
:100590006D656E7420286D6D293A20003F4B2076E2
:1005A000616C7565206F7574206F662072616E676F
:1005B000652028302D3130292E0A00416476616E85
:1005C0006365204B3D003C3C3C2067636F64655F86
:1005D000540A00203A2041465445520A0020206324
:1005E000757272656E745F706F736974696F6E3D5A
:1005F00000203A204245464F52450A0020206375AC
:100600007272656E745F706F736974696F6E3D00AE
:100610003E3E3E2067636F64655F54280025697322
:100620000025696D20256973002569682025696D9D
:100630002025697300256964202569682025696D76
:10064000202569730025697920256964202569685A
:100650002025696D20256973002C20002C200020A6
:100660003A2073796E635F706C616E5F706F73694F
:1006700074696F6E0A00202063757272656E745F14
:10068000706F736974696F6E3D004E6F20436865CB
:10069000636B73756D2077697468206C696E652073
:1006A0006E756D6265722C204C617374204C696E9E
:1006B000653A20004B494C4C45442E200053544F82
:1006C000505045442E20005072696E74657220733C
:1006D000746F707065642064756520746F20657236
:1006E000726F72732E204669782074686520657277
:1006F000726F7220616E6420757365204D393939CF
:1007000020746F20726573746172742E2028546592
:100710006D7065726174757265206973207265739E
:1007200065742E2053657420697420616674657247
:100730002072657374617274696E67290A004E6F66
:1007400020436865636B73756D2077697468206CEE
:10075000696E65206E756D6265722C204C617374D4
:10076000204C696E653A2000636865636B73756D34
:10077000206D69736D617463682C204C6173742003
:100780004C696E653A20004C696E65204E756D624D
:100790006572206973206E6F74204C617374204CF5
:1007A000696E65204E756D6265722B312C204C612F
:1007B0007374204C696E653A20004D313130004D24
:1007C00033310053442072656164206572726F7228
:1007D0000A00446F6E65207072696E74696E6720DE
:1007E00066696C650A0020496E76616C69642065F3
:1007F00078747275646572200000000000000000CB
:1008000000000000000080134400003E440000612E
:10081000440A20736F66745F656E6473746F705FF3
:100820006D6178203D20000A20736F66745F656EED
:100830006473746F705F6D696E203D20000A2070D4
:100840006F736974696F6E5F7368696674203D20A9
:100850000020617869733A0A20686F6D655F6F6682
:1008600066736574203D2000466F7220003C3C3C5E
:1008700020646F5F626C6F636B696E675F6D6F762C
:10088000655F746F0A003E3E3E20646F5F626C6F6E
:10089000636B696E675F6D6F76655F746F003C3C7C
:1008A0003C20646F5F686F6D696E675F6D6F766522
:1008B00028005D290A00205B002C20002C20003E2F
:1008C0003E3E20646F5F686F6D696E675F6D6F7627
:1008D000652800456E642066696C65206C697374D8
:1008E0000A00426567696E2066696C65206C6973F1
:1008F000740A00286E6F2066696C652900534420D5
:100900007072696E74696E67206279746520004E3A
:100910006F74205344207072696E74696E670A00A8
:1009200043757272656E742066696C653A200020AA
:100930005A3A0020593A0020436F756E7420583A95
:100940000020453A00205A3A0020593A00583A000F
:100950003A004361703A00544845524D414C5F5053
:10096000524F54454354494F4E004155544F524500
:10097000504F52545F53445F5354415455530045B4
:100980004D455247454E43595F50415253455200E1
:10099000434153455F4C494748545F425249474899
:1009A000544E45535300544F47474C455F4C4947BD
:1009B00048545300534F4654574152455F504F5788
:1009C0004552004255494C445F50455243454E54B0
:1009D000004C4556454C494E475F44415441005AEE
:1009E0005F50524F4245004155544F4C4556454C7F
:1009F000005052494E545F4A4F420050524F4752A6
:100A0000455353004155544F5245504F52545F5433
:100A1000454D5000564F4C554D45545249430045A5
:100A20004550524F4D0053455249414C5F584F4E2F
:100A30005F584F4646004649524D574152455F4E1A
:100A4000414D453A4D61726C696E20312E312E3820
:100A500020284769746875622920534F55524345D1
:100A60005F434F44455F55524C3A68747470733A13
:100A70002F2F6769746875622E636F6D2F4D6172D9
:100A80006C696E4669726D776172652F4D61726C2B
:100A9000696E2050524F544F434F4C5F564552534E
:100AA000494F4E3A312E30204D414348494E455F23
:100AB000545950453A3344205072696E746572201F
:100AC00045585452554445525F434F554E543A325F
:100AD00020555549443A63656465326132662D3468
:100AE0003161322D343734382D396231322D63354E
:100AF000356336326633363766660A002F2F20009C
:100B00004B494C4C45442E2000202D20496E7661E7
:100B10006C6964206578747275646572206E756D99
:100B200062657220210A00CDCC0C40CDCC0C40CDAA
:100B3000CC0C403D0AD73F3D0AD73F6666E63F668C
:100B400066E63F000000000000000000000000001A
:100B50000000000000000000000000000000000095
:100B60000000000000000000000000000000000085
:100B70000000000000000000000000000000000075
:100B80000000000000000000000000000000000065
:100B90000000000000000000000000000000000055
:100BA00000000000000C0000000000000000000039
:100BB00000000000003F00000000000000000000F6
:100BC0000000000000FFC000000000000000000066
:100BD0000000000001FFF000000000000000000025
:100BE0000000000007F3FC0000000000000000000F
:100BF000000000001FC0FF00000000000000000017
:100C0000000000007F003FC0000000000000000066
:100C100000000001F80007F00000000000000000E4
:100C200000000007F00003F80000000000000000D2
:100C30000000000FE00000FC0000000000000000C9
:100C40000000003F801E003F000000000000000088
:100C50000000007E007F800F800000000000000088
:100C6000000000FC007F8003C000000000000000C6
:100C7000000000FC01FFE003C000000000000000D5
:100C8000000000FF8FFFFC3FC000000000000000DC
:100C9000000000FFDFFFFE3FC0000000000000007A
:100CA000000000E7FFFFFFFDC1FE20FF1FE0FFC0C7
:100CB0003FCFFEE3FFFFFFF9C7FE63FF9FF8FFE1B1
:100CC000FFCFFEE07FFFFFC1CC066303981CC0315D
:100CD00081C0C0E07FFFFFC1CC026601980CC03329
:100CE00000C0C0E07FFFFFC1CC006600180CC0331D
:100CF00000C0C0E07FFC43C1CC006600180CC033CC
:100D000000C0C0E07FFB4DC1CC0066001806C033B8
:100D100000C0C0E062665DC1CC0066001806C0334A
:100D200000C0C0E074A4DDC1CC0066001806C0732A
:100D300000C0C0E0642F59C1CC0066001806FFE374
:100D400000C0C0E06E78C7C1CC3E661F9806FFF3B6
:100D500000C0C0E07FFFFFC1CC3E660F9FFEC033E6
:100D600000C0C0E07FFFFFC1CC0266019806C01B37
:100D700000C0C0E07FFFFFC1CC0266019806C01B27
:100D800000C0C0E07FFFFFC1CC0266019806C01B17
:100D900000C0C0E03FFFFF81CC0266019806C01B87
:100DA00000C0C0E01FFFFF01CC0266019806C01B17
:100DB00000C0C0E00FFFFC01CE0E67031806C0396B
:100DC0008180C0F001FFE003CFFC67FE1806FFF949
:100DD000FF80C0F800FFC003CFF867FC1804FFF8DD
:100DE0007E0040FC007F8007C00000000000000083
:100DF0000000007F001E001F8000000000000000B7
:100E00000000001FC00C007E000000000000000079
:100E100000000007E00C01FC0000000000000000E2
:100E200000000003F80C03F80000000000000000C0
:100E300000000001F80C07F00000000000000000B6
:100E4000000000007E0C1FC0000000000000000039
:100E5000000000003F8C7F00000000000000000048
:100E6000000000000FFFFC00000000000000000078
:100E70000000000007FFF800000000000000000074
:100E80000000000000FFE000000000000000000083
:100E900000000000003F0000000000000000000013
:100EA00000000000000C0000000000000000000036
:100EB0000000000000000000000000000000000032
:100EC0000000000000000000000000000000000022
:100ED0000000000000000000000000000000000012
:100EE0000000000000000000000000000000000002
:100EF00000000000000000000000000000000000F2
:100F000000000000000000000000000000000000E1
:100F100000000000000000000000000000000000D1
:100F200000000000000000000000000000000000C1
:100F300000000000000000000000000000000000B1
:100F40000000001FFFFFFFFFFFFF60000000000127
:100F5000FF400000000000FF8000000000007F83D1
:100F6000CF00000C303F87FF80000C301F86798057
:100F7000000C000F8C30C7838C30E78C30CFC7CC8F
:100F800031F38C30DCECEC33B98C30D86C6C331929
:100F90008C30D06C0C33198C30D86C0C33198C30ED
:100FA000DC6C0E3B198C30CF7C079F198C30C77CD2
:100FB000038F1940000000000002600000000000E4
:100FC000061FFFFFFFFFFFF83344205072696E7465
:100FD00065722052656164792E002020506C616E2C
:100FE0006E657242756666657242797465733A2001
:100FF000002046726565204D656D6F72793A20005C
:10100000436F6D70696C65643A204A756C203131AC
:1010100020323031380A00207C20417574686F72AC
:101020003A20284742584C2056342E782E78202DCE
:10103000204D61726C696E20312E312E38290A00E4
:101040004A756C20313120323031382031333A3515
:10105000333A333800204C617374205570646174E6
:1010600065643A2000312E312E380A004D61726CD1
:10107000696E0020536F66747761726520526573E4
:1010800065740A00205761746368646F6720526555
:101090007365740A002042726F776E206F7574203A
:1010A00052657365740A002045787465726E616CD0
:1010B0002052657365740A00506F77657255700A27
:1010C0000073746172740A006175746F25692E670C
:1010D000006572726F722077726974696E6720742E
:1010E0006F2066696C650A00456E6473746F707377
:1010F00020256320256320256320256300205A3A9C
:101100000020593A0020583A00656E6473746F707D
:1011100073206869743A2000446F6E6520736176AD
:10112000696E672066696C652E0A004D3239007C55
:101130003C3E5E2B3D3F2F5B5D3B2C2A225C0045F5
:1011400072726F722077726974696E6720746F2093
:10115000454550524F4D210A00454550524F4D20B4
:101160006461746173697A65206572726F722E0AA8
:1011700000486F74656E64206F6666736574733AB9
:101180000023646566696E652044454641554C54AC
:101190005F4B64200023646566696E6520444546A4
:1011A00041554C545F4B69200023646566696E6548
:1011B0002044454641554C545F4B702000504944F3
:1011C000204175746F74756E652066696E69736809
:1011D0006564212050757420746865206C61737497
:1011E000204B702C204B6920616E64204B6420637F
:1011F0006F6E7374616E74732066726F6D206265BA
:101200006C6F7720696E746F20436F6E66696775C7
:10121000726174696F6E2E680A00504944204175EE
:10122000746F74756E65206661696C6564212074E5
:10123000696D656F75740A004245442054484552F3
:101240004D414C2052554E415741590054686572EA
:101250006D616C2052756E61776179004531205463
:101260004845524D414C2052554E41574159004539
:101270003220544845524D414C2052554E41574121
:1012800059004265642068656174696E6720666113
:10129000696C65640048656174696E6720666169A0
:1012A0006C65640045312048656174696E6720662D
:1012B00061696C65640045322048656174696E67D8
:1012C000206661696C656400504944204175746F03
:1012D00074756E65206661696C6564212054656D66
:1012E000706572617475726520746F6F20686967CC
:1012F000680A00204B643A2000204B693A20002005
:101300004B703A20000A20436C617373696320506C
:101310004944200A002054753A2000204B753A2099
:1013200000206D61783A2000206D696E3A2000201F
:10133000643A200020626961733A200050494420D9
:101340004175746F74756E65206661696C656421A2
:1013500020426164206578747275646572206E75D0
:101360006D6265720A00504944204175746F74754E
:101370006E652073746172740A004D3630303A2005
:10138000546F6F20636F6C6400486F74656E6420E7
:10139000746F6F20636F6C640A00496E73657274BA
:1013A0002066696C616D656E7420616E6420707278
:1013B00065737320627574746F6E0A005072657382
:1013C0007320627574746F6E20746F206865617429
:1013D000206E6F7A7A6C650A00496E7365727420AC
:1013E00066696C616D656E7420616E6420707265F3
:1013F000737320627574746F6E20286F72204D3184
:101400003038290A00496E76616C69642065787409
:1014100072756465720A00290A0020627974657326
:101420003B20637263200053657474696E67732098
:1014300053746F726564202800290A002062797451
:1014400065733B2063726320002073746F72656460
:101450002073657474696E67732072657472696550
:10146000766564202800202863616C63756C617464
:10147000656429210A0020213D2000454550524F36
:101480004D20435243206D69736D61746368202D54
:10149000202873746F7265642920002053697A656F
:1014A0003A2000496E6465783A2000204D61726CE4
:1014B000696E3D563534290A0028454550524F4D36
:1014C0003D00454550524F4D2076657273696F6EF1
:1014D000206D69736D617463682000486172646394
:1014E0006F6465642044656661756C74205365742F
:1014F00074696E6773204C6F616465640A00D0077D
:101500000000D00700006400000010270000000069
:1015100016430000164300008040000070423D0A60
:10152000ED423D0AED4200F87B4500007A4424F488
:10153000D43050C38E20C2A24017828B7011127A11
:10154000910D816CD90AA861E108C75866076151FD
:1015500043061E4B5D05C145A7041A411104093D10
:101560009803713931034036DB0265339102D43080
:101570005402802E1D02632CEE01752AC501B0288D
:10158000A001102781018F2564012B244B01E0224B
:101590003401AC211F018D200D01801FFC00841E31
:1015A000ED00971DDF00B81CD200E61BC600201B13
:1015B000BC00641AB200B219A8000A19A0006A1887
:1015C0009900D117910040178B00B5168400311691
:1015D0007E00B31579003A157300C7146F005814D4
:1015E0006A00EE1366008813630025135E00C712BD
:1015F0005B006C12570015125400C111510070119C
:101600004F0021114B00D61049008D1047004610A5
:10161000440002104200C00F4000800F3E00420F05
:101620003C00060F3B00CB0E3800930E37005C0EDB
:101630003500270E3400F30D3200C10D3100900D3E
:101640003000600D2E00320D2D00050D2C00D90C40
:101650002B00AE0C2900850C29005C0C2700350CF2
:1016600027000E0C2600E80B2400C40B2400A00B5E
:1016700023007D0B23005A0B2100390B2100180B8E
:101680002000F80A1F00D90A1E00BB0A1E009D0A8E
:101690001D00800A1D00630A1C00470A1B002C0A5B
:1016A0001B00110A1A00F7091A00DD091900C40904
:1016B0001900AB091900920917007B09180063098A
:1016C00017004C09160036091600200916000A09F1
:1016D0001500F5081500E0081400CC081400B8083F
:1016E0001400A4081400900813007D0812006B0871
:1016F000130058081200460812003408110023088D
:1017000011001208110001081100F0071000E00795
:101710001000D0071000C0071000B0070F00A1078D
:10172000100091070E0083070F0074070F00650774
:101730000E0057070E0049070E003B070D002E074D
:101740000E0020070D0013070D0006070D00F90617
:101750000C00ED060D00E0060C00D4060C00C806D7
:101760000C00BC060C00B0060C00A4060B00990689
:101770000C008D060B0082060B0077060B006C0632
:101780000B0061060A0057060B004C060A004206D1
:101790000A0038060A002E060A0024060A001A0665
:1017A0000A001006090007060A00FD050900F405F5
:1017B0000900EB050900E2050900D9050900D0057B
:1017C0000900C7050900BE050900B5050800AD05FB
:1017D0000800A50509009C050800940508008C0573
:1017E0000800840508007C050800740508006C05E5
:1017F0000700650508005D050700560508004E0551
:1018000007004705070040050800380507003105B7
:1018100007002A050700230507001C05060016051A
:1018200007000F0507000805060002050700FB0476
:101830000600F5040700EE040600E8040600E204D2
:101840000700DB040600D5040600CF040600C90427
:101850000600C3040600BD040600B7040600B10478
:101860000500AC040600A6040600A00405009B04C5
:10187000060095040500900406008A04050085040E
:101880000500800406007A04050075040500700454
:1018900005006B04050066040500610405005C0496
:1018A000050057040500520405004D0405004804D6
:1018B0000500430405003E0404003A040500350415
:1018C0000500300404002C04050027040400230450
:1018D00005001E0404001A04040016040500110487
:1018E00004000D04040009040500040404000004BD
:1018F0000400FC030400F8030400F4030400F003F4
:101900000400EC030400E8030400E4030400E00323
:101910000400DC030400D8030400D4030400D00353
:101920000400CC030400C8030300C503030024F42F
:1019300004D9201BC40C5C0E9804C4095F0265071F
:101940007101F405F900FB04B30048048700C103EA
:1019500069005803550003034500BE023A008402A3
:10196000310053022A002902250004022000E4016C
:101970001C00C8011900AF01170098011400840170
:101980001300710110006101100051010E004301AC
:101990000D0036010B002B010B0020010B0015017F
:1019A00009000C01090003010800FB000800F30016
:1019B0000800EB000700E4000600DE000600D80087
:1019C0000600D2000600CC000500C7000500C200DA
:1019D0000500BD000400B9000400B5000400B1001A
:1019E0000400AD000400A9000400A5000300A2004B
:1019F00003009F0004009B00030098000300950073
:101A0000020093000300900003008D0002008B0091
:101A100003008800020086000200840003008100A9
:101A200002007F0002007D0002007B0002007900BE
:101A300002007700010076000200740002007200CC
:101A40000100710002006F0002006D0001006C00D7
:101A500002006A00010069000200670001006600E0
:101A600001006500010064000200620001006100E5
:101A70000100600001005F0002005D0001005C00E9
:101A800001005B0001005A000100590001005800EC
:101A900001005700010056000100550001005400EC
:101AA00001005300000053000100520001005100EA
:101AB0000100500001004F0001004E0000004E00E8
:101AC00001004D0001004C0001004B0000004B00E4
:101AD00001004A00010049000100480000004800E0
:101AE00001004700010046000000460001004500DB
:101AF00000004500010044000100430000004300D5
:101B000001004200000042000100410000004100CD
:101B10000100400001003F0000003F0001003E00C6
:101B200000003E0001003D0000003D0001003C00BF
:101B300000003C0000003C0001003B0000003B00B6
:101B400001003A0000003A000100390000003900AD
:101B500001003800000038000000380001003700A4
:101B6000000037000100360000003600000036009B
:101B70000100350000003500000035000100340090
:101B80000000340000003400010033000000330086
:101B9000000033000100320000003200000032007B
:101BA0000100310000003100000031000100300070
:101BB000000030000000300001002F0000002F0066
:101BC00000002F0000002F0001002E0000002E005A
:101BD00000002E0001002D0000002D0000002D004F
:101BE00000002D0001002C0000002C0000002C0043
:101BF00000002C0001002B0000002B0000002B0037
:101C000000002B0001002A0000002A0000002A002A
:101C100000002A000100290000002900000029001E
:101C20000000290000002900010028000000280011
:101C30000000280000002800000028000100270004
:101C400000002700000027000000270000002700F8
:101C500001002600000026000000260000002600EB
:101C600000002600010025000000250000002500DE
:101C700000002500000025000000250001002400D0
:101C800000002400000024000000240000002400C4
:101C900001002300000023000000230000002300B7
:101CA00000002300000023000000230001002200A8
:101CB000000022000000220000002200000022009C
:101CC000000022000100210000002100000021008E
:101CD0000000210000002100000021000000210080
:101CE0000100200000002000000020000000200073
:101CF0000000200000002000000020000000200064
:101D000001001F0000001F0000001F0000001F0056
:101D100000001F0000001F0000001F0001001E0047
:101D200000001E0000001E0000001E000000000059
:101D30002100240027002A002D003000330001017B
:101D40000000040107010A0100002200250028000C
:101D50002B002E00310034000201000005010801B3
:101D60000B01000020002300260029002C002F007A
:101D70003200000100000301060109010505050507
:101D8000070508080808020202020A0A08080404F3
:101D90000404010101010101010103030303030321
:101DA0000303040707070C0C0C0C0C0C0C0C0202B0
:101DB000020206060606060606060B0B0B0B0B0BAD
:101DC0000B0B01021020200808102040102040803A
:101DD00002010201080402010102040810204080EF
:101DE000804020100804020180040201804020107D
:101DF00008040201080402010102040810204080C6
:101E0000010204081020408000000A0B02090C0D9A
:101E10000E0807030401000000000000000000009D
:101E200000000000000000000000000000000000B2
:101E3000000000001211100000000000000000006F
:101E400000000000000000000000000000004368E7
:101E5000616E67652066696C616D656E74005072B5
:101E600065686561742050430050726568656174EF
:101E700020504C41004368616E67652066696C6163
:101E80006D656E74004D3234004D32332025730081
:101E9000556E6B6E6F776E20636F6D6D616E643A19
:101EA000202200496E736572742066696C616D65ED
:101EB0006E7420616E642070726573732062757435
:101EC000746F6E20286F72204D313038290A004817
:101ED0006F74656E6420746F6F20636F6C640A00AA
:101EE00053442063617264206F6B0A006F70656EEB
:101EF000526F6F74206661696C65640A00766F6C5E
:101F0000756D652E696E6974206661696C65640A19
:101F100000534420696E6974206661696C0A002070
:101F2000204E6F7A7A6C653A2000200066696C61F9
:101F30006D656E74206C6F61640057616974206612
:101F40006F720020204E6F7A7A6C653A2000200074
:101F500066696C616D656E74207075726765005797
:101F600061697420666F7200746F20726573756D9D
:101F700065005761697420666F72207072696E74B3
:101F80000020204D36303320002055005431204CA5
:101F9000002055005430204C0046696C616D656E20
:101FA00074206C6F61642F756E6C6F6164206C655A
:101FB0006E677468733A0A0020204D393030204B28
:101FC000004C696E65617220416476616E63653AAA
:101FD0000A0020204D3235302043004C434420433A
:101FE0006F6E74726173743A0A00204400204900D5
:101FF00020204D3330312050002044002049002063
:10200000500020204D33303120450050494420738A
:10201000657474696E67733A0A00204600204200B6
:1020200020480020204D3134352053004D61746527
:102030007269616C2068656174757020706172618D
:102040006D65746572733A0A0020590020204D3680
:10205000363600456E6473746F702061646A757300
:10206000746D656E743A0A002059002058002020D3
:102070004D323138205400486F74656E64206F66AD
:1020800066736574733A0A00205A002059002020B4
:102090004D323036205800486F6D65206F6666738C
:1020A00065743A0A00204500205A00205900205843
:1020B0000020420020540020204D323035205300B3
:1020C000416476616E6365643A20533C6D696E5F6E
:1020D00066656564726174653E20543C6D696E5F2F
:1020E00074726176656C5F66656564726174653E85
:1020F00020423C6D696E5F7365676D656E745F74D9
:10210000696D655F75733E20583C6D61785F7879C5
:102110005F6A65726B3E205A3C6D61785F7A5F6AD8
:1021200065726B3E20453C6D61785F655F6A6572E4
:102130006B3E0A0020540020520020204D323034E3
:10214000205000416363656C65726174696F6E2035
:1021500028756E6974732F7332293A20503C70725F
:10216000696E745F616363656C3E20523C72657496
:10217000726163745F616363656C3E20543C74728A
:102180006176656C5F616363656C3E0A00204500A3
:10219000205A0020590020204D3230312058004D67
:1021A0006178696D756D20416363656C65726174FA
:1021B000696F6E2028756E6974732F7332293A0A1D
:1021C00000204500205A0020590020204D32303395
:1021D0002058004D6178696D756D20666565647283
:1021E000617465732028756E6974732F73293A0AB8
:1021F00000204500205A0020590020204D3932206F
:10220000580053746570732070657220756E697420
:102210003A0A0020204D3230302044300A0020207D
:102220004D32303020543120440020204D323030A7
:102230002044002044697361626C65640A00466949
:102240006C616D656E742073657474696E67733A42
:102250000020204D3134392043203B20556E6974D5
:102260007320696E2043656C736975730A002020C2
:10227000473231202020203B20556E69747320693D
:102280006E206D6D0A00496E697469616C697A65CA
:1022900020454550524F4D00436F6E74726F6C0075
:1022A000526573746F7265206661696C73616665EF
:1022B000004C6F61642073657474696E67730049C4
:1022C0006E697469616C697A6520454550524F4D5D
:1022D0000053746F72652073657474696E67730060
:1022E0004C434420636F6E7472617374004C4344BA
:1022F00020636F6E74726173740046696C616D6502
:102300006E74004D6F74696F6E0054656D70657208
:102310006174757265004D61696E00507265686523
:10232000617420504320636F6E660050726568656B
:10233000617420504C4120636F6E66005049442DFB
:1023400044005049442D44005049442D490050490F
:10235000442D49005049442D50005049442D50000F
:1023600020082046616374002008204661637400E1
:102370002008204D6178002008204D617800200859
:10238000204D6178002008204D696E002008204D06
:10239000696E002008204D696E004F6666004F6E22
:1023A00020004175746F74656D700046616E207316
:1023B000706565640046616E2073706565640042F7
:1023C000656400426564004E6F7A7A6C6520320065
:1023D0004E6F7A7A6C652032004E6F7A7A6C652087
:1023E00031004E6F7A7A6C65203100436F6E7472E3
:1023F0006F6C0053746F72652073657474696E67D7
:10240000730042656400426564004E6F7A7A6C65C1
:10241000004E6F7A7A6C650046616E207370656558
:10242000640046616E2073706565640054656D706C
:102430006572617475726500203A20636C65616E27
:102440005F75705F61667465725F656E6473746FEB
:10245000705F6F725F70726F62655F6D6F76650A35
:1024600000202063757272656E745F706F7369749B
:10247000696F6E3D00203A2073657475705F666FFA
:10248000725F656E6473746F705F6F725F70726F8E
:1024900062655F6D6F76650A0020206375727265F4
:1024A0006E745F706F736974696F6E3D004E4F4E4E
:1024B000450A0050726F62653A200043617274658C
:1024C0007369616E0A004D616368696E65205479B5
:1024D00070653A20003C3C3C2067636F64655F4751
:1024E00032380A005261697365205A202862656695
:1024F0006F726520686F6D696E672920746F2000A8
:102500003E20656E6473746F70732E656E61626CCD
:10251000652874727565290A003E3E3E2067636F28
:1025200064655F4732380A00486F6D652025732562
:102530007325732066697273740020666972737400
:102540000A005A0059005800486F6D652000577204
:102550006974696E6720746F2066696C653A200043
:102560006F70656E206661696C65642C2046696CCD
:10257000653A20006F70656E206661696C65642C39
:102580002046696C653A200046696C652073656C6D
:1025900065637465640A002053697A653A200046D1
:1025A000696C65206F70656E65643A20006F7065B8
:1025B0006E206661696C65642C2046696C653A2002
:1025C000002066696C653A2000646F696E6700667A
:1025D00072657368004E6F772000454E4420535556
:1025E00042524F5554494E450A002220706F7300E5
:1025F0002220706172656E743A2200535542524F28
:102600005554494E452043414C4C207461726765D6
:10261000743A22004B494C4C45442E200074727988
:10262000696E6720746F2063616C6C207375622D16
:1026300067636F64652066696C6573207769746889
:1026400020746F6F206D616E79206C6576656C7398
:102650002E204D4158206C6576656C2069733A00D8
:102660004572726F723A00507265686561742050ED
:102670004320416C6C005072656865617420504362
:10268000204845322B42656400507265686561746C
:1026900020504320484532005072656865617420BF
:1026A0005043204845312B4265640050726568658F
:1026B0006174205043204265640050726568656112
:1026C0007420504320484531005072657061726536
:1026D00000436F6F6C646F776E0044697361626C66
:1026E00065207374657070657273004D38340048EE
:1026F0006F6D6520416C6C0047323800486F6D6526
:10270000205A00473238205A00486F6D65205859CA
:102710000047323820582059004D6F766520617887
:102720006973004368616E67652066696C616D65F9
:102730006E74005072656865617420504300507279
:10274000656865617420504C41004D61696E004DB3
:102750006F76652058004D6F76652059004D6F7675
:1027600065205A0045787472756465723200457848
:1027700074727564657231004D6F766520302E314C
:102780006D6D004D6F766520316D6D004D6F766516
:102790002031306D6D004D6F766520617869730072
:1027A0004578747275646572004D6F7665205A00C5
:1027B0004D6F76652059004D6F766520580045783D
:1027C00074727564657232004578747275646572EE
:1027D00031004D6F7665205A004D6F7665205900A7
:1027E0004D6F7665205800507265706172650045C6
:1027F00073746570732F6D6D004573746570732FFE
:102800006D6D005A73746570732F6D6D005A73741B
:102810006570732F6D6D005973746570732F6D6DD6
:10282000005973746570732F6D6D00587374657003
:10283000732F6D6D005873746570732F6D6D004D3F
:102840006F74696F6E00543159204F6666736574FA
:1028500000543159204F6666736574005431582016
:102860004F666673657400543158204F6666736511
:10287000740053746570732F6D6D004A65726B0040
:10288000416363656C65726174696F6E0056656C57
:102890006F6369747900436F6E74726F6C00436F7D
:1028A0006E74696E756F7573207072696E74696E7F
:1028B0006700506175736520666F72206368616E92
:1028C00067650052756E6F75742046656174757228
:1028D000650053656C65637420612046696C616DA9
:1028E000656E740046696C2E204469612E203200AA
:1028F00046696C2E204469612E20320046696C2E98
:10290000204469612E20310046696C2E20446961A3
:102910002E20310046696C2E204469612E004669E4
:102920006C2E204469612E00416476616E636520DF
:102930004B00416476616E6365204B0046696C61B3
:102940006D656E742052756E6F757400436F6E7492
:10295000726F6C0043616E6E6F7420656E74657289
:10296000207375626469723A2000022E2E000152B3
:10297000656672657368004D61696E001010FFFF37
:10298000FFFF0000020202026265640A002C20734D
:10299000797374656D2073746F707065642120485D
:1029A00065617465725F49443A200042656420683D
:1029B000656174696E67206661696C65640048656D
:1029C0006174696E67206661696C65640048656161
:1029D00074696E67206661696C65640045312048E2
:1029E000656174696E67206661696C656400453273
:1029F0002048656174696E67206661696C65640072
:102A00004572723A204D415854454D50204245443C
:102A1000004D415854454D50207472696767657286
:102A20006564004531204572723A204D4158544545
:102A30004D50004532204572723A204D4158544560
:102A40004D50004572723A204D494E54454D50202C
:102A5000424544004D494E54454D502074726967BB
:102A60006765726564004531204572723A204D49B0
:102A70004E54454D50004532204572723A204D4922
:102A80004E54454D5000202F002040002042403A37
:102A90000020403A0025753A253032750025303245
:102AA000753A253032750025756420253032753A27
:102AB00025303275005A00590058000920000000E6
:102AC000000000000000000000003FFFF0000000D8
:102AD000000000000000000000380070000000004E
:102AE000000000000000000030FC3000000000008A
:102AF0000000000000000020FC10000000000000AA
:102B0000000000000000207810000000000000001D
:102B10000000000000203010000000000000000055
:102B2000000000002C00D03FC0001FE000000000AB
:102B30002082002E31D07DE0003CF000000000102B
:102B400041002F7BD079E0003B7000000000104175
:102B5000002F7BD075E0003F700000000020820055
:102B60002E31D03DC0001EE0000000004104002CCA
:102B700000D03DC0001DE0000000008208002030B1
:102B8000107DE0003BF0000000008208002078107B
:102B90007DE00038700000000041040020FC107F40
:102BA000E0003FF00000000020820030FC301F8079
:102BB000000FC0000000000000003800700F00008F
:102BC000078000000000FFFFC03FFFF00600000389
:102BD0000000000000FFFFC0000000000000000037
:102BE000000000000000003FFFF0000000000000B7
:102BF000000000000000380070000000000000002D
:102C000000000000003186300000000000000000DD
:102C100000000000238710000000000000000000FA
:102C20000000002787900000000000000000000066
:102C300000002F87D000000000000000000000000E
:102C4000002F03D03FC0001FE000000000208200E2
:102C50002030107DE0003CF000000000104100201A
:102C6000781079E0003B70000000001041002078EF
:102C70001075E0003F70000000002082002030103E
:102C80003DC0001EE0000000004104002F03D03DC5
:102C9000C0001DE0000000008208002F87D07DE00A
:102CA000003BF0000000008208002787907DE000D4
:102CB0003870000000004104002387107FE0003FCF
:102CC000F0000000002082003186301F80000FC01D
:102CD000000000000000003800700F0000078000B6
:102CE000000000FFFFC03FFFF006000003000000EF
:102CF0000000FFFFC000000000060900FE00000009
:102D0000000001090008FE00000508080600004058
:102D1000F0C88888987810050808060000C0F88870
:102D200088888888F80505050600012030F83020DD
:102D30000508080600002070F820202020E0050982
:102D4000090600FF2070A8A8B88888702005090926
:102D50000600FFE080C0B0A8283028280509090631
:102D600000FFF8A88888888888A8F8050A0A06005D
:102D7000FE205050505088A8A88870030303060016
:102D80000340A04043616E6E6F74206F70656E20CB
:102D900073756264697220006563686F3A0042452A
:102DA0004420544845524D414C2052554E415741C4
:102DB0005900546865726D616C2052756E6177615F
:102DC0007900453120544845524D414C2052554ED2
:102DD0004157415900453220544845524D414C20FD
:102DE00052554E415741590020746F6F206C6F6EE1
:102DF0006720657874727573696F6E20707265767E
:102E0000656E7465640A0020636F6C642065787475
:102E1000727573696F6E2070726576656E74656425
:102E20000A004261627973746570205A00436861D8
:102E30006E67652066696C616D656E7400426162E3
:102E40007973746570205A00466C6F7720320046A3
:102E50006C6F77203200466C6F77203100466C6FC4
:102E600077203100466C6F7700466C6F77004661C3
:102E70006E2073706565640046616E2073706565D1
:102E8000640042656400426564004E6F7A7A6C6546
:102E90002032004E6F7A7A6C652032004E6F7A7A5B
:102EA0006C652031004E6F7A7A6C6520310053706A
:102EB000656564005370656564004D61696E00501E
:102EC00072656865617420504C4120416C6C005003
:102ED00072656865617420504C41204845322B4230
:102EE0006564005072656865617420504C412048EB
:102EF0004532005072656865617420504C4120482D
:102F000045312B42656400507265686561742050DC
:102F10004C412042656400507265686561742050C0
:102F20004C41204845310050726570617265000067
:102F3000060900FE0701920321207FFF07FF07FF1C
:102F40000000000600000107070602008080808064
:102F5000800080030202060105A0A0050707060005
:102F6000005050F850F85050050707060000207830
:102F7000A07028F020050707060000C0C8102040F8
:102F800098180507070600006090A040A890680206
:102F90000303060104C04080030707060100204028
:102FA0008080804020030707060100804020202009
:102FB000408005050506000120A870A8200505052C
:102FC0000600012020F820200203030602FFC04073
:102FD00080050101060003F8020202060200C0C0DB
:102FE00005050506000108102040800507070600BA
:102FF000007088888888887003070706010040C031
:1030000040404040E00507070600007088087080D7
:1030100080F8050707060000F81020100808F005E2
:10302000070706000010305090F81010050707063B
:103030000000F880F0080888700507070600007097
:103040008080F0888870050707060000F8081020C7
:103050002020200507070600007088887088887087
:1030600005070706000070888878080870020505C3
:10307000060200C0C000C0C00206060602FFC0C0B3
:1030800000C0408004070706000010204080402058
:1030900010050303060002F800F804070706010004
:1030A0008040201020408005070706000070880837
:1030B0001020002005070706000070880868A8A8EF
:1030C00070050707060000708888F888888805075B
:1030D00007060000F08888F08888F00507070600DA
:1030E0000070888080808870050707060000F088DF
:1030F00088888888F0050707060000F88080F0803F
:1031000080F8050707060000F88080F080808005C1
:103110000707060000708880B888887005070706D2
:103120000000888888F888888801070706020080E0
:10313000808080808080050707060000381010100E
:103140001090600507070600008890A0C0A0908836
:10315000050707060000808080808080F80507074B
:1031600006000088D8A88888888805070706000018
:103170008888C8A89888880507070600007088888E
:1031800088888870050707060000F08888F080802E
:103190008005070706000070888888A890680507E2
:1031A00007060000F08888F0A09088050707060051
:1031B00000788080700808F0050707060000F820F6
:1031C000202020202005070706000088888888889E
:1031D00088700507070600008888888888502005C1
:1031E00007070600008888888888A8500507070612
:1031F000000088885020508888050707060000884E
:10320000888850202020050707060000F8081020B5
:103210004080F8030707060100E08080808080E09E
:103220000505050600018040201008030707060178
:1032300000E02020202020E00503030600042050A9
:1032400088050101060000F802020206020580401E
:103250000505050600007008788878050707060050
:10326000008080B0C88888F00505050600007080E1
:103270008088700507070600000808689888887825
:103280000505050600007088F88070050707060030
:10329000003048E0404040400506060600FF7088C8
:1032A000887808700507070600008080B0C8888805
:1032B0008801070706020080008080808080030864
:1032C000080601FF200020202020A0400407070658
:1032D0000000808090A0C0A090030707060100C0F6
:1032E0004040404040E0050505060000D0A8A8A8E1
:1032F000A8050505060000B0C888888805050506EC
:10330000000070888888700506060600FFF088882F
:10331000F080800506060600FF7888887808080592
:103320000505060000B0C880808005050506000080
:1033300070807008F00407070600004040E040403D
:103340004030050505060000888888986805050551
:10335000060000888888502005050506000088883A
:10336000A8A85005050506000088502050880506CD
:10337000060600FF888888780870050505060000A5
:10338000F8102040F8030707060100204040804065
:103390004020010707060200808080808080800333
:1033A00007070601008040402040408005020206D9
:1033B000000268900000000600005072696E74659B
:1033C0007220537461747300546865726D6F636F1B
:1033D00075706C657300426F61726420496E666F30
:1033E000005072696E74657220496E666F004D619F
:1033F000696E004D36303020423020542564004D37
:1034000037303120542564004D373032203B25645D
:10341000004D37303220542564004D363030204284
:1034200030205431004368616E67652066696C61C5
:103430006D656E74204532004D36303020423020AC
:103440005430004368616E67652066696C616D6524
:103450006E74204531005072657061726500505283
:10346000494E542050415553454400554E4C4F4110
:10347000442046494C414D454E54004C4F41442058
:1034800046494C414D454E54005075726765206D5C
:103490006F726500436F6E74696E756500524553B7
:1034A000554D45204F5054494F4E533A0020204E21
:1034B0006F7A7A6C653A20006368616E6765006FA9
:1034C00066207468652066696C616D656E7400576E
:1034D00061697420666F72207374617274002020B9
:1034E0004E6F7A7A6C653A2000200066696C616DD7
:1034F000656E7420756E6C6F61640057616974202D
:10350000666F720020204E6F7A7A6C653A20002038
:1035100000506C6561736520776169742E2E2E00F2
:1035200048656174696E67206E6F7A7A6C650020F9
:10353000204E6F7A7A6C653A2000200068656174CD
:10354000206E6F7A7A6C652E0050726573732062FC
:103550007574746F6E20746F0020204E6F7A7A6CD1
:10356000653A2000746F20636F6E74696E75652E06
:103570002E2E00616E642070726573732062757404
:10358000746F6E00496E736572742066696C616D4C
:10359000656E7400656E7175657565696E6720226C
:1035A000000000000000003E44000000003C3C3CE5
:1035B000207365745F617869735F69735F61745FBD
:1035C000686F6D652800203A200A0020206375721C
:1035D00072656E745F706F736974696F6E3D005DC4
:1035E000203D20003E20686F6D655F6F66667365E5
:1035F000745B003E3E3E207365745F617869735F63
:1036000069735F61745F686F6D65280000004842F0
:103610000000484200008040000000005761726EC8
:10362000696E673A20486F6D696E672042756D70EC
:103630002044697669736F72203C20310A001414AB
:10364000050000A0400000A04000000040008013E2
:103650004400003E44000061443C3C3C20686F6DE7
:1036600065617869732800203A203E204146544520
:1036700052207365745F617869735F69735F617409
:103680005F686F6D650A00202063757272656E74E5
:103690005F706F736974696F6E3D00486F6D652070
:1036A0003220536C6F773A0A004D6F766520417770
:1036B00061793A0A00486F6D652031204661737464
:1036C0003A0A00FF01FF3E3E3E20686F6D6561785B
:1036D0006973280041637469766520457874727552
:1036E0006465723A2000203A204D6F766520626151
:1036F000636B0A00202064657374696E6174696F7E
:103700006E3D00207D0A002C20004F6666736574B4
:1037100020546F6F6C205859206279207B20004E16
:103720006F206D6F7665206F6E20746F6F6C6368AD
:10373000616E67650A0000002110422063308440FA
:10374000A550C660E770088129914AA16BB18CC170
:10375000ADD1CEE1EFF13112100273325222B552E7
:103760009442F772D662399318837BB35AA3BDD3C0
:103770009CC3FFF3DEE36224433420040114E664B7
:10378000C774A44485546AA54BB528850995EEE510
:10379000CFF5ACC58DD55336722611163006D776C7
:1037A000F6669556B4465BB77AA719973887DFF760
:1037B000FEE79DD7BCC7C448E5588668A77840088F
:1037C000611802282338CCC9EDD98EE9AFF94889B0
:1037D00069990AA92BB9F55AD44AB77A966A711A27
:1037E000500A333A122AFDDBDCCBBFFB9EEB799B00
:1037F000588B3BBB1AABA66C877CE44CC55C222C77
:10380000033C600C411CAEED8FFDECCDCDDD2AAD4F
:103810000BBD688D499D977EB66ED55EF44E133E06
:10382000322E511E700E9FFFBEEFDDDFFCCF1BBF9F
:103830003AAF599F788F8891A981CAB1EBA10CD179
:103840002DC14EF16FE18010A100C230E320045081
:10385000254046706760B9839893FBA3DAB33DC3F4
:103860001CD37FE35EF3B1029012F322D2323542D1
:10387000145277625672EAB5CBA5A89589856EF584
:103880004FE52CD50DC5E234C324A0148104667421
:10389000476424540544DBA7FAB79987B8975FE7D4
:1038A0007EF71DC73CD7D326F2369106B016576671
:1038B0007676154634564CD96DC90EF92FE9C8995C
:1038C000E9898AB9ABA94458654806782768C018C1
:1038D000E1088238A3287DCB5CDB3FEB1EFBF98B34
:1038E000D89BBBAB9ABB754A545A376A167AF10A11
:1038F000D01AB32A923A2EFD0FED6CDD4DCDAABD44
:103900008BADE89DC98D267C076C645C454CA23C60
:10391000832CE01CC10C1FEF3EFF5DCF7CDF9BAF13
:10392000BABFD98FF89F176E367E554E745E932EB0
:10393000B23ED10EF01E526573656E643A20006F80
:103940006B00627573793A207061757365642066E7
:103950006F7220696E7075740A00627573793A200F
:1039600070617573656420666F7220757365720A85
:1039700000627573793A2070726F63657373696E54
:10398000670A004B494C4C45442E20004B494C4C97
:1039900020636175736564206279204B494C4C202B
:1039A000627574746F6E2F70696E0A004B494C4CCF
:1039B00045442E20004B494C4C206361757365646F
:1039C00020627920746F6F206D75636820696E6165
:1039D00063746976652074696D65202D2063757246
:1039E00072656E7420636F6D6D616E643A20004D78
:1039F000363030004D36303100506C6561736520D3
:103A00007265736574005052494E544552204841C6
:103A10004C544544005072696E7465722068616C44
:103A20007465642E206B696C6C28292063616C6C52
:103A30006564210A005654726176206D696E0056E5
:103A400054726176206D696E005654726176206DF5
:103A5000696E00566D696E00566D696E00566D692F
:103A60006E00566D6178204500566D6178204500E6
:103A7000566D6178204500566D6178205A00566D6C
:103A80006178205A00566D6178205A00566D617831
:103A9000205900566D6178205900566D6178205983
:103AA00000566D6178205800566D61782058005698
:103AB0006D61782058004D6F74696F6E00416D61C3
:103AC00078204500416D6178204500416D61782086
:103AD0005A00416D6178205A00416D61782059008B
:103AE000416D6178205900416D6178205800416D29
:103AF0006178205800412D74726176656C00412D0B
:103B000074726176656C00412D72657472616374C4
:103B100000412D7265747261637400416363656C6A
:103B200000416363656C004D6F74696F6E0056658C
:103B30002D6A65726B0056652D6A65726B0056655D
:103B40002D6A65726B00567A2D6A65726B00567A23
:103B50002D6A65726B0056792D6A65726B00567915
:103B60002D6A65726B0056792D6A65726B00567806
:103B70002D6A65726B0056782D6A65726B005678F7
:103B80002D6A65726B004D6F74696F6E0066696CAB
:103B9000616D656E74323A200066696C616D656EA8
:103BA000743A20007A5F6D61783A20007A5F6D691F
:103BB0006E3A200079325F6D61783A2000795F6D4E
:103BC00061783A2000785F6D696E3A200052657026
:103BD0006F7274696E6720656E6473746F702073A2
:103BE00074617475730A003344205072696E746591
:103BF000722052656164792E005072696E74696E2C
:103C0000672E2E2E005072696E7420706175736578
:103C100064005072696E742061626F727465640032
:103C20004D3231004E6F2053442063617264004373
:103C300068616E67652053442063617264004D3291
:103C400031005072696E742066726F6D20534400AB
:103C500053746F70207072696E7400526573756D65
:103C600065207072696E7400496E69742E20534429
:103C70002063617264005061757365207072696EB3
:103C8000740041626F7574205072696E74657200C1
:103C9000436F6E74726F6C00507265706172650074
:103CA00054756E6500496E666F2073637265656E4C
:103CB0000000457874727564656420746F74616C7B
:103CC0003A2000256C642E25696D00004C6F6E67EC
:103CD000657374206A6F622074696D653A20000014
:103CE000546F74616C207072696E742074696D65B4
:103CF0003A2000436F6D706C657465643A20005023
:103D000072696E7420436F756E743A20004D61784D
:103D10002054656D703A20313530004D696E205465
:103D2000656D703A203500544265643A4144383438
:103D30003935004D61782054656D703A2033363046
:103D4000004D696E2054656D703A20350054313A4B
:103D5000204144353935004D61782054656D703A05
:103D600020333630004D696E2054656D703A203531
:103D70000054303A204144353935005053553A20EB
:103D800032345600426175643A203235303030307A
:103D900000417A746565672058332050726F00685F
:103DA000747470733A2F2F726533642E6F726700CC
:103DB0004A756C20313120323031382031333A3578
:103DC000343A313200342E322E3000476967616256
:103DD0006F7420332B20584C5400CF00D100112495
:103DE0001FBECFEFD1E2DEBFCDBF00E00CBF13E0BE
:103DF000A0E0B2E0E4E6FAE402E00BBF02C0079004
:103E00000D92A63AB107D9F72BE1A6EAB3E001C0BB
:103E10001D92A83AB207E1F71EE1CEEEDEE100E026
:103E200006C021970109802FFE010F949024CD3EFA
:103E3000D10780E00807A9F70F94450B0D942125C1
:103E40000C9400002F923F924F925F926F927F925C
:103E50008F929F92AF92BF92CF92DF92EF92FF929A
:103E60000F931F93CF93DF93CDB7DEB7CB57D10915
:103E70000FB6F894DEBF0FBECDBF11E010938C07D4
:103E800080919F1B8D3409F4D4C6843511F40C94B1
:103E9000BE35873411F00C94173680919D1B90919C
:103EA0009E1B8430910509F4DFC544F497FDBDC61F
:103EB00020914E02823091056CF527C08A3591051C
:103EC00009F441C66CF48B31910509F40CC64C978A
:103ED00009F0ABC660E080E00E94DEA50C941936C4
:103EE0008B35910509F433C68C35910509F09DC6D3
:103EF00065E4262E63E0362E71E6C72E7AE1D72ED2
:103F0000E12CF12C00E010E05FC621110C941E366C
:103F10000C941936222311F40C94193611E00297EF
:103F200009F010E00E948F3D82E50E946B3D8823DE
:103F300009F45CC10E94F13C6B017C014090160ABF
:103F40005090170A6090180A7090190A80911A0A06
:103F500090911B0AA0911C0AB0911D0A28968CAF63
:103F60009DAFAEAFBFAF28972091260A3091270AA8
:103F70004091280A5091290A2C962CAF3DAF4EAFA4
:103F80005FAF2C9780912A0A90912B0AA0912C0A5E
:103F9000B0912D0A60968CAF9DAFAEAFBFAF60976A
:103FA00020E030E0A901C701B6010F94411D88232C
:103FB00009F440C5A30192012C966CAD7DAD8EAD88
:103FC0009FAD2C970F94411D811111C028962CADE7
:103FD0003DAD4EAD5FAD289760966CAD7DAD8EADBD
:103FE0009FAD60970F94411D882309F423C520E0FD
:103FF00030E0A901C701B6010F94411D881F882731
:10400000881F18130BC020E030E040E85FE3A09663
:104010002CAF3DAF4EAF5FAFA0970AC080E090E0FD
:10402000A0E8BFEBA0968CAF9DAFAEAFBFAFA0979F
:10403000A30192012C966CAD7DAD8EAD9FAD2C97FA
:104040000F94882168966CAF7DAF8EAF9FAF689755
:1040500028962CAD3DAD4EAD5FAD289760966CAD0A
:104060007DAD8EAD9FAD60970F9488216C966CAF3F
:104070007DAF8EAF9FAF6C9768962CAD3DAD4EADCA
:104080005FAD6897CA01B9010F94A61D4B015C0191
:104090006C962CAD3DAD4EAD5FAD6C97CA01B901CC
:1040A0000F94A61D9B01AC01C501B4010F94892199
:1040B0000F94F42364966CAF7DAF8EAF9FAF64977F
:1040C00020E030E040E05FE30F94A61D4B015C016F
:1040D000A7019601C701B6010F94A61D6B017C01D3
:1040E000A5019401C501B4010F94A61D9B01AC016B
:1040F000C701B6010F9488210F94F4239B01AC01F2
:10410000A0966CAD7DAD8EAD9FADA0970F94A61D12
:104110004B015C012C962CAD3DAD4EAD5FAD2C97A7
:10412000C301B2010F94892120E030E040E05FE359
:104130000F94A61D6B017C016C966CAD7DAD8EADB0
:104140009FAD6C97905864962CAD3DAD4EAD5FAD74
:1041500064970F9465229B01AC01C501B4010F94D3
:10416000A61D9B01AC01C701B6010F948921A301D3
:1041700092010F9488216B017C0160962CAD3DADBE
:104180004EAD5FAD609728966CAD7DAD8EAD9FADA9
:1041900028970F94892120E030E040E05FE30F94FE
:1041A000A61D2B013C0164962CAD3DAD4EAD5FAD1F
:1041B000649768966CAD7DAD8EAD9FAD68970F949A
:1041C00065229B01AC01C501B4010F94A61D9B01A2
:1041D000AC01C301B2010F94892128962CAD3DADED
:1041E0004EAD5FAD28970F94882114C089E40E94DA
:1041F0006B3D882329F00E94F13C6B017C0103C0D8
:10420000C12CD12C76018AE40E946B3D8823F9F001
:104210000E94F13C60966CAF7DAF8EAF9FAF609710
:1042200020E030E0A901C701B6010F94411D8111C2
:104230001EC020E030E0A90160966CAD7DAD8EAD72
:104240009FAD60970F94411D811111C0F3C320E011
:1042500030E0A901C701B6010F94411D882309F47C
:10426000E9C360961CAE1DAE1EAE1FAE6097A701DF
:104270009601505828962CAF3DAF4EAF5FAF2897B0
:1042800060968CAD9DADAEADBFAD6097B0582C962D
:104290008CAF9DAFAEAFBFAF2C97CA01B9010F94E1
:1042A000A61D4B015C012C962CAD3DAD4EAD5FAD16
:1042B0002C97CA01B9010F94A61D9B01AC01C50141
:1042C000B4010F9489210F94F423E8966CAF7DAF6D
:1042D0008EAF9FAFE8972091160A3091170A409150
:1042E000180A5091190A64962CAF3DAF4EAF5FAFDC
:1042F0006497A701960164966CAD7DAD8EAD9FADC0
:1043000064970F948921A0966CAF7DAF8EAF9FAF5D
:10431000A09780911A0A90911B0AA0911C0AB09153
:104320001D0A68968CAF9DAFAEAFBFAF6897609621
:104330002CAD3DAD4EAD5FAD6097BC01CD010F948E
:104340008921A4966CAF7DAF8EAF9FAFA4972091CB
:10435000260A3091270A4091280A5091290A6C9622
:104360002CAF3DAF4EAF5FAF6C97A0962CAD3DAD7F
:104370004EAD5FADA0976C966CAD7DAD8EAD9FAD33
:104380006C970F9488216B017C0180912A0A90918F
:104390002B0AA0912C0AB0912D0AA8968CAF9DAF44
:1043A000AEAFBFAFA897A4962CAD3DAD4EAD5FADFF
:1043B000A497BC01CD010F9488214B015C01209191
:1043C0001E0A30911F0A4091200A5091210AAC9692
:1043D0002CAF3DAF4EAF5FAFAC9760912E0A70919E
:1043E0002F0A8091300A9091310A0F9488212B0175
:1043F0003C018091320A9091330AA091340AB09125
:10440000350AEC968CAF9DAFAEAFBFAFEC97209165
:10441000220A3091230A4091240A5091250AE496F9
:104420002CAF3DAF4EAF5FAFE497A7019601289642
:104430006CAD7DAD8EAD9FAD28970F94A61DE09617
:104440006CAF7DAF8EAF9FAFE097A50194012C9626
:104450006CAD7DAD8EAD9FAD2C970F94A61D9B01CD
:10446000AC01E0966CAD7DAD8EAD9FADE0970F9445
:104470008921E0966CAF7DAF8EAF9FAFE097A5012D
:10448000940128966CAD7DAD8EAD9FAD28970F94AD
:10449000A61D4B015C01A70196012C966CAD7DAD6C
:1044A0008EAD9FAD2C970F94A61D9B01AC01C5014D
:1044B000B4010F948821E0962CAD3DAD4EAD5FADBB
:1044C000E0970F94FC216B017C0120E030E0A90112
:1044D0000F94411D87FF0AC02BED3FE049EC50E4EB
:1044E000C701B6010F9489216B017C01112351F0A2
:1044F0002BED3FE049EC50E4C701B6010F94882151
:104500006B017C0120E030E0A901C701B6010F94E6
:10451000411D811128C06C962CAD3DAD4EAD5FADF7
:104520006C9764966CAD7DAD8EAD9FAD64970F9426
:10453000411D811118C0A8962CAD3DAD4EAD5FADAB
:10454000A89768966CAD7DAD8EAD9FAD68970F94C2
:10455000411D811108C0FBEDCF2EFFE0DF2EF9ECED
:10456000EF2EF0E4FF2EA7019601E8966CAD7DAD2D
:104570008EAD9FADE8970F94A61D4B015C0120E026
:1045800030E0A901C301B2010F94411D8823C9F095
:10459000A5019401C501B4010F94A61D4B015C0156
:1045A000A3019201C301B2010F94A61D9B01AC01AE
:1045B000C501B4010F9489210F94F4234B015C01D0
:1045C00002C0E894B7F82FE632E143E85AE3C501A8
:1045D000B4010F94411D87FF02C00C941936C50128
:1045E000B4010F94FE220F94D2221B01672B19F401
:1045F00022242394312CB10180E090E00F94451DDA
:104600004B015C019B01AC01C701B6010F9465220F
:1046100064966CAF7DAF8EAF9FAF6497A501940198
:10462000C301B2010F946522E8966CAF7DAF8EAFE7
:104630009FAFE897E4962CAD3DAD4EAD5FADE497EE
:10464000EC966CAD7DAD8EAD9FADEC970F9488214F
:10465000A50194010F946522EC966CAF7DAF8EAFEF
:104660009FAFEC9764962CAD3DAD4EAD5FAD6497BA
:10467000CA01B9010F94A61D20E030E040E05FE3DD
:104680000F94A61D9B01AC0160E070E080E89FE301
:104690000F948821A8966CAF7DAF8EAF9FAFA8977F
:1046A000AC968CAD9DADAEADBFADAC9789879A870A
:1046B000AB87BC87E4962CAD3DAD4EAD5FADE497C6
:1046C0002D873E874F87588B8E01015C1F4F60916D
:1046D0003A0270913B02072E000C880B990B0F9445
:1046E000471D20913C0230913D0240913E02509185
:1046F0003F020F94A61D2AE037ED43E25CE30F94DE
:10470000A61DD8016D937D938D939C9313970E9462
:10471000FB789B01AC0128533F4F4F4F5F4FAC9646
:104720002CAF3DAF4EAF5FAFAC9725964FAC259702
:1047300026965FAC269727966FAC279728967FAC76
:10474000289741E050E06A965FAF4EAF6A9759E113
:1047500065965FAF6597E1960FAFE197AD961FAF96
:10476000AD976A96EEADFFAD6A97E215F30509F4D1
:1047700046C10E949EBE0E94FB78DC01CB01AC9634
:104780002CAD3DAD4EAD5FADAC97821B930BA40B32
:10479000B50BB7FD11C00E94FB789B01AC012853FB
:1047A0003F4F4F4F5F4FAC962CAF3DAF4EAF5FAF1B
:1047B000AC9780E00E9456F165963FAD6597315009
:1047C00065963FAF6597332309F44BC0A8962CAD8F
:1047D0003DAD4EAD5FADA8972C966CAD7DAD8EAD69
:1047E0009FAD2C970F94A61D6B017C0164962CAD98
:1047F0003DAD4EAD5FAD6497B201C3010F94A61DF0
:10480000A70196010F9489217B018C01A8962CADFC
:104810003DAD4EAD5FADA897B201C3010F94A61D8B
:104820004B015C0164962CAD3DAD4EAD5FAD649720
:104830002C966CAD7DAD8EAD9FAD2C970F94A61DC3
:104840009B01AC01C501B4010F9488212B013C01EF
:10485000C701D8012C968CAF9DAFAEAFBFAF2C97E0
:1048600061C06A964EAD5FAD6A97BA0180E090E094
:104870000F94451D64962CAD3DAD4EAD5FAD649774
:104880000F94A61D4B015C010F9462226B017C0109
:10489000C501B4010F94EA234B015C01A701960105
:1048A00028966CAD7DAD8EAD9FAD28970F94A61D5B
:1048B0002B013C01A501940160966CAD7DAD8EADE0
:1048C0009FAD60970F94A61D9B01AC01C301B2017F
:1048D0000F9489212B013C01A501940128966CAD10
:1048E0007DAD8EAD9FAD28970F94A61D4B015C0149
:1048F000A701960160966CAD7DAD8EAD9FAD6097C2
:104900000F94A61D9B01AC01C501B4010F94882131
:104910002C966CAF7DAF8EAF9FAF2C9759E165960B
:104920005FAF65979201A301A0966CAD7DAD8EAD92
:104930009FADA0970F94892169837A838B839C8391
:104940002C962CAD3DAD4EAD5FAD2C97A4966CADC5
:104950007DAD8EAD9FADA4970F9489216D837E832D
:104960008F839887E8962CAD3DAD4EAD5FADE8974F
:1049700069857A858B859C850F94892169877A87DB
:104980008B879C87EC962CAD3DAD4EAD5FADEC9723
:104990006D857E858F8598890F9489216D877E87A7
:1049A0008F87988B80914D02882321F0CE0101964C
:1049B0000E94A2ECE090370A18A219A21AA21BA228
:1049C000CE0180966C01E1960FADE197AD961FADDB
:1049D000AD979E01235F3F4FAE01475F5F4FBE0122
:1049E0006B5F7F4F4F970E94E0A26A96AEADBFAD5E
:1049F0006A9711966A96BFAFAEAF6A97B2CEE09053
:104A0000370A1BAE1CAE1DAE1EAE9E01255C3F4F8D
:104A100069018E01015C1F4F22E33AE04EE25AE049
:104A20006AE27AE086E29AE00E94E0A20E940D3FEC
:104A30000C941936E0E6F6E284918F010F5F1F4F68
:104A4000882321F00E94783FF801F6CFEAE5F2E0F2
:104A500084918F010F5F1F4F882311F40C94193636
:104A60000E94783FF801F4CF80E50E946B3D8823D7
:104A700029F00E94B13C6B017C0103C0C12CD12CF8
:104A8000760183E50E946B3D882361F00E94F13C32
:104A900020E030E04AE754E40F94A61D0F94D222A0
:104AA0006B017C010F94340B80916216811105C05B
:104AB00060E080E792E00E94F5E50E94FB78C60E78
:104AC000D71EE81EF91E0E94FB78DC01CB018C1971
:104AD0009D09AE09BF09B7FD02C00C94193680E0EC
:104AE0000E9456F1F0CF0E9441A581110C94193615
:104AF00080E090E0AAEFB3E489839A83AB83BC8320
:104B000080E090E8ABE3B4E48D839E83AF83B88705
:104B100080E090E0A0EAB1E489879A87AB87BC8700
:104B200080E50E946B3D882319F00E94C13C01C0C2
:104B300060E068A3BE016F5F7F4FCE0180960E9448
:104B4000FFFD0C9419361092AA030C941936109399
:104B5000AA030C9419360E94F13C2B013C0113303E
:104B600059F0F701E75AFA4E208131814281538191
:104B70000F9488212B013C01F701EA5EF54F20815B
:104B8000318142815381C301B2010F9488214B01CD
:104B90005C012DEB37E346E855EB0F94AF2387FD1F
:104BA0001BC02DEB37E346E855E3C501B4010F9474
:104BB000411D18168CF01F5FB4E0CB0ED11CE4E051
:104BC000EE0EF11C143039F1D1018D911D010E94BE
:104BD0006B3D882381F3BFCF133051F44092220AFA
:104BE0005092230A6092240A7092250A01E0E3CFD2
:104BF000A5019401F60160817181828193810F94F6
:104C00008921D6016D937D938D939C931397812F6A
:104C10000E942340D0CF002321F082E29AE00E943C
:104C200057A70E9474450C9419360E9412870C9461
:104C3000193680919D1B90919E1B8637910511F42A
:104C40000C94802E0CF0C4C08D34910509F460C41E
:104C50000CF058C08931910509F47EC21CF58431ED
:104C6000910509F44AC27CF48131910509F433C2FB
:104C70002CF4029708F4B5C10C94BB35429709F4A3
:104C80004EC70C94BB358631910509F43EC20CF435
:104C900038C28731910509F43EC2489709F451C2E0
:104CA0000C94BB358E31910509F46EC284F48B31BE
:104CB000910509F45BC20CF455C28C31910509F4DD
:104CC00059C24D9711F40C9419360C94BB358A32A5
:104CD000910509F4DCC34CF48F31910509F4ADC39F
:104CE000809709F45EC30C94BB358B34910509F4AD
:104CF0000BC48C34910511F00C94BB350E94C5C0D7
:104D00000C9419368A36910509F4B7C69CF584359A
:104D1000910509F404C7CCF48135910509F4E4C682
:104D200034F48E34910509F4F7C30C94BB35823505
:104D3000910509F4F0C68335910511F00C94BB354B
:104D400081E08093A9030C9419368C35910509F400
:104D500038C734F48535910509F418C70C94BB3570
:104D60008836910509F4DAC48936910509F4F0C54D
:104D70000C94BB358F36910509F441C584F48C360B
:104D8000910509F4ADC50CF49DC68D36910509F465
:104D900021C68E36910509F41FC50C94BB358237A8
:104DA000910509F496C754F48037910509F49CC520
:104DB0008137910509F4A0C50C94BB358337910563
:104DC00009F48CC78537910509F48BC70C94BB3562
:104DD0008C32F1E09F0711F40C9461330CF074C035
:104DE0008B3C910511F40C94832FA4F58139910526
:104DF00009F497C784F48837910509F487C70CF440
:104E000082C78937910509F487C78C38910509F461
:104E1000FFC50C94BB358E3B910509F417C634F4DD
:104E20008B39910509F4AFC50C94BB35883C9105CD
:104E300009F4EEC7893C910511F00C94BB359BE356
:104E4000E92E9BE1F92E05E413E024E0D22ED00EEA
:104E50000C946B2F8A3D910511F40C946632B4F4D6
:104E60008D3C910511F40C94153014F40C94A02F82
:104E70008E3C910511F40C948030833D910511F026
:104E80000C94BB35E8E9FDE20C948831823E910533
:104E900011F40C94E33264F48C3D910511F40C94FC
:104EA00069328D3D910511F40C9476320C94BB352A
:104EB0008A3F910511F40C940C338232914011F425
:104EC0000C9456330C94BB35873F41E0940711F4A2
:104ED0000C94A2340CF041C08039A1E09A0711F47F
:104EE0000C949934C4F48E32E1E09E0711F40C94D2
:104EF0002B3414F40C948A338F3221E0920711F48E
:104F00000C947F348336914011F00C94BB35E0E66D
:104F1000F6E20C948234843F41E0940711F40C943F
:104F20009C3464F48A39A1E09A0709F4E1C48C3A0C
:104F3000914011F40C94A2300C94BB35853FE1E014
:104F40009E0711F40C949F34863F914011F00C940D
:104F5000BB350E943C600C9419368D3522E09207D7
:104F600011F40C94D634ECF4883542E0940711F433
:104F70000C94D0343CF4883F914011F40C94AD343F
:104F80000C94BB358935B2E09B0711F40C94D334F3
:104F90008B35924011F00C94BB350E9451550C9406
:104FA00019368B38F3E09F0711F40C9486356CF4B6
:104FB0008A3932E0930711F40C9405358438934014
:104FC00011F40C9430350C94BB35803A53E09507BE
:104FD00009F426C2873E934011F40C94A9350C9431
:104FE000BB35A0909B1BB0909C1B80E50E946B3D45
:104FF000882359F00E94B13C6B017C0111E0672BC2
:10500000682B692B31F410E004C010E0C12CD12CC6
:10501000760183E50E946B3D882311F40C940037E0
:105020000E94F13C20E030E04AE754E40F94A61DD2
:105030000F94D2226B017C0111110BC0672B682BDE
:10504000692B39F4A114B10421F0F501808181119B
:1050500002C010E001C011E00F94340B112329F0BD
:1050600061E0C5010E9414E605C060E089E792E0B6
:105070000E94F5E583E080938C0781E080938B07A5
:10508000C114D104E104F104F1F00E94FB78C60ED2
:10509000D71EE81EF91E0E94FB78DC01CB018C199B
:1050A0009D09AE09BF09B7FD06C00F940405109213
:1050B0008B070C94193680918B078823B1F380E01D
:1050C0000E9456F1E8CF80918B07882371F380E02E
:1050D0000E9456F1F8CF60E08CE892E00E94F5E57E
:1050E0005F988A98809108018170809306011298D8
:1050F0004798A198A0980C9419360E94CD3F0C9423
:1051000019360E9489820C94193610921E1710923B
:105110001F170C941936E0919B1BF0919C1B80810A
:10512000882329F0803209F410823196F8CF40E0CC
:1051300061E080919B1B90919C1B0E9446A00C9467
:10514000193680911F17882319F081E080931E176C
:105150000F9449020C94193610921E170E94C5C074
:105160000C9419360E94773D0C9419360E94A24384
:105170000C94193640E060E080919B1B90919C1B41
:105180000E9446A00C94193680911F17882311F4B1
:105190000C94193689EE98E10E941A5089EE98E134
:1051A0000E94DB5110921D1710921C17E0909B1B60
:1051B000F0909C1B80911F17882311F40C941936D2
:1051C0000E946AC71D8218861C821B828DE293E0B2
:1051D0009A8389838BE497E190936B1780936A1786
:1051E000D7018C918F3209F067C06FE270E0C70180
:1051F0000F94DE248C010F5F1F4FFE0131964F018B
:105200000115110509F45EC06FE270E0C8010F944A
:10521000DE246C01009709F456C00817190708F03E
:1052200052C05C01A01AB10AA501B801CE01809656
:105230000F940725E0E2F0E0EC0FFD1FEA0DFB1DE7
:1052400010828E01005E1F4FD8018D918D01882341
:1052500019F00E94783FF8CF8AE00E94783F609171
:105260006A1770916B176115710511F06C5F7F4FB4
:1052700021E0AE01405E5F4FCE0105960E94CB5308
:10528000811112C0BE01605E7F4F8BEB92E00F94E4
:1052900021028EE20E94783F8AE00E94783FC4019A
:1052A0000E94DBF00C94193690926B1780926A176B
:1052B00086010F5F1F4FA4CF8CE697E190936B1789
:1052C00080936A17870160916A1770916B17611557
:1052D000710511F06C5F7F4F18A21BA222E0A8019C
:1052E000CE0180960E94CB53811102C0F12C14C0D4
:1052F000CE0180960E94D8C68823C1F361E0CE011A
:1053000080960E94FF4F009789F325EEFC012083D1
:105310001BA20E949E4AF82ECE0180960E94FD3E5E
:10532000FF2009F1E5E9F2E084917F012FEFE21A15
:10533000F20A882321F00E94783FF701F5CFD801C7
:105340008D918D01882319F00E94783FF8CF8AE073
:105350000E94783F10929A1910929B1910929C19F2
:1053600010929D1918C0E3EAF2E084917F01BFEF2B
:10537000EB1AFB0A882321F00E94783FF701F5CF52
:10538000F80181918F01882319F00E94783FF8CFAE
:105390008EE20E94783FCE0101960E94DBF00C94D1
:1053A000193680911E1781110F94340B80911F17AD
:1053B000882311F40C94193680E50E946B3D8823F4
:1053C00019F00E94E23C03C080E50E94243D182FA2
:1053D000482F61E080919B1B90919C1B0E9446A0EE
:1053E00083E50E946B3D882381F00E94C13CAB01A4
:1053F000BC0140939A1950939B1960939C19709328
:105400009D1989EE98E10E948F4D80911F17882386
:1054100019F081E080931E1711110C94193698CE63
:1054200080919B1B90919C1B21E020931D1740E0D5
:1054300060E00E9446A00C9419360E9491C068A3B7
:1054400079A38AA39BA3BE016F5F7F4FCE01809695
:105450000E943D3E60E0CE0101960E9414E6E8E91C
:10546000FDE284918F010F5F1F4F882321F00E947E
:10547000783FF801F6CFBE016F5F7F4F8FEC92E06F
:105480000F9421028AE00E94783F0C94193683E53C
:105490000E946B3D882311F40C9419360E94D13C74
:1054A000E82E80E50E946B3D882339F00E94D13CB4
:1054B000182F87FF03C00C9419361DE0E6EBF4E0CB
:1054C0008CE38E0F9491191729F031968E13FACF31
:1054D0000C940537E0E6F6E284918F010F5F1F4FD1
:1054E000882321F00E94783FF801F6CFECEDF2E03E
:1054F00084918F010F5F1F4F882311F40C9419368C
:105500000E94783FF801F4CF0F9449020C941936A9
:105510000F94A7020C94193683E50E946B3D81110C
:1055200003C0E9E4F3E009C00E94C13C6E34710598
:10553000C1F70F9417030C94193684918F010F5FF4
:105540001F4F882321F00E94783FF801F6CFE0E456
:10555000F3E084918F010F5F1F4F882321F00E9499
:10556000783FF801F6CF609131047091320480E009
:1055700090E04AE00E943C43E3E3F3E084918F0132
:105580000F5F1F4F882321F00E94783FF801F6CF6C
:10559000609133047091340480E090E04AE00E940E
:1055A0003C43E8E2F3E084918F010F5F1F4F8823B3
:1055B00021F00E94783FF801F6CF6091310470919C
:1055C00032048091330490913404681B790B8091EC
:1055D0002F04815021E030E0823010F020E030E0F4
:1055E000621B730B80E090E04AE00E943C438AE03B
:1055F0000E94783FE0E2F3E084918F010F5F1F4F3C
:10560000882321F00E94783FF801F6CF809135047D
:1056100090913604A0913704B091380488A399A3DF
:10562000AAA3BBA3BE016F5F7F4FCE0180960E94ED
:105630003D3EE3E1F3E084918F010F5F1F4F811145
:1056400006C09E012F5F3F4F7901890104C00E946F
:10565000783FF801F0CFD8018D918D01882319F0A2
:105660000E94783FF8CF8091390490913A04A0913C
:105670003B04B0913C0488A399A3AAA3BBA3BE0199
:105680006F5F7F4FCE0180960E943D3EE3E0F3E0E6
:1056900084918F010F5F1F4F882321F00E94783F74
:1056A000F801F6CFF70181917F01882319F00E945C
:1056B000783FF8CF8AE00E94783FEBEFF2E08491E8
:1056C0008F010F5F1F4F882321F00E94783FF80160
:1056D000F6CFEBEEF2E084918F010F5F1F4F88232E
:1056E00021F00E94783FF801F6CF20E030E04AE751
:1056F00054E460913D0470913E0480913F04909188
:1057000040040F94652242E00E9403458DE60E940A
:10571000783F8AE00E94783F0C94193688E690E042
:105720000E94204481110C94193680913C1583FF0E
:1057300002C00C94193683E50E946B3D882309F45E
:1057400047C00E94F13CF090B4150F2D10E0000FFF
:10575000111F0855184F0F94CD22D8016D937C93DB
:105760008F2D0E9499BA0E94F13C20E030E040E782
:1057700052E40F94411D18163CF00F94A70260E00C
:1057800080E693E00E94F5E50E94F13C0091B4159B
:1057900010E0F801EE0FFF1FEE0FFF1FE156F84F6C
:1057A00020813181428153810F94AF23181684F4F4
:1057B0000F5F1F4F1F930F9381E593E09F938F938C
:1057C0001F920E9426A50F900F900F900F900F90A0
:1057D0000F949E180C9419368EE40E946B3D88231A
:1057E00011F40C9419360E94C13C60934F157093CC
:1057F000501580935115909352150C94193683E5EA
:105800000E94243D882359F083E50E946B3D882344
:1058100019F00E94D13C01C080E080933C15E8E97A
:10582000FDE284918F010F5F1F4F882321F00E94BA
:10583000783FF801F6CFE2E8F3E084918F010F5F43
:105840001F4F882321F00E94783FF801F6CF809106
:105850003C158823A1F132E7C32E33E0D32EE12C8F
:10586000F12C20E080913C1590E00E2C02C0959523
:1058700087950A94E2F780FF17C0BB24B394B20E59
:10588000222319F08CE20E94783FF6012591349191
:10589000F901849189010F5F1F4F882321F00E9435
:1058A000783F9801F5CF2B2DFFEFEF1AFF0A32E07A
:1058B000C30ED11C46E0E416F104A1F60CC0EEE7DD
:1058C000F3E084918F010F5F1F4F882321F00E9426
:1058D000783FF801F6CF8AE00E94783F0C941936A1
:1058E000109229020C94193689E893E00E94F6F090
:1058F0000E94EB5A0C94193683E50E946B3D882375
:1059000069F00E94D13C8D3320F480935E020C94A8
:1059100019368CE380935E020C941936E8E9FDE2B7
:1059200084918F010F5F1F4F882321F00E94783FE1
:10593000F801F6CF40915E0250E060E070E082E94D
:1059400093E00F9495018AE00E94783F0C941936F9
:1059500089E690E00E942044811111C0E9E9F3E05A
:1059600084918F010F5F1F4F882321F00E94783FA1
:10597000F801F6CF0E945DB98AE00E94783F10924C
:105980008C070C94D23A83E50E946B3D882311F476
:105990000C9419360E94D13C182F8D3308F01CE36B
:1059A0001093FB1A0E94FB786B017C01212F30E0E1
:1059B000A8EEB3E00F947921C60ED71EE81EF91E9B
:1059C000C092F71AD092F81AE092F91AF092FA1AE5
:1059D0000C9419368DE690E00E94204481110C94BD
:1059E000193680913C1583FF02C00C94193683E56B
:1059F0000E946B3D25968FAF259781110C941A3725
:105A000082E50E946B3D81110C941A370C94193673
:105A100080913C1583FF02C00C94193683E50E94E7
:105A20006B3D882311F40C9419360E94F13C0F94BD
:105A3000CD226739710514F066E970E07093F607BE
:105A40006093F5070E944EBA0C94193680913C156C
:105A500083FF02C00C94193683E50E946B3D2D969E
:105A60008FAF2D9781110C94C83882E50E946B3D51
:105A700081110C94C8380C94193680E50E946B3D56
:105A8000811108C083E50E946B3D811109C03FEF81
:105A900020E00AC00E94D13C81110C941936F2CF4B
:105AA0000E94C13C362F272F832F922F8F3F9105C5
:105AB00019F010F08FEF90E09093FC058093FB05B8
:105AC0000C94193680E50E946B3D811106C010923E
:105AD000FC051092FB050C9419360E94C13C672B03
